:020000040800F2
:1000000000000120FD1A0008A7070008A907000842
:10001000AB070008AD070008AF07000800000000AC
:10002000000000000000000000000000B107000810
:10003000B307000800000000B5070008B707000874
:10004000451B0008451B0008451B0008451B000810
:10005000451B0008451B0008451B0008451B000800
:10006000451B0008451B0008451B0008451B0008F0
:10007000451B0008451B0008451B0008451B0008E0
:10008000451B0008451B0008451B0008451B0008D0
:10009000451B0008451B0008451B0008451B0008C0
:1000A000451B0008451B0008451B0008451B0008B0
:1000B000451B0008451B0008451B0008451B0008A0
:1000C000451B0008451B0008451B0008451B000890
:1000D000451B0008451B0008451B0008451B000880
:1000E000451B0008451B0008451B0008451B000870
:1000F000451B0008451B0008451B0008451B000860
:10010000451B0008451B0008451B0008451B00084F
:10011000451B0008451B0008451B0008451B00083F
:10012000451B0008451B0008451B0008451B00082F
:1001300000000000000000000000000000000000BF
:1001400000000000000000000000000000000000AF
:10015000000000000000000000000000000000009F
:10016000000000000000000000000000000000008F
:10017000000000000000000000000000000000007F
:10018000000000000000000000000000000000006F
:10019000000000000000000000000000000000005F
:1001A000000000000000000000000000000000004F
:1001B000000000000000000000000000000000003F
:1001C000000000000000000000000000000000002F
:1001D000000000000000000000000000000000001F
:0401E0005FF8E0F1F3
:1001E4000348044B834202D0034B03B118477047C2
:1001F4000C0000200C000020000000000548064907
:100204000B1AD90F01EBA301491002D0034B03B120
:10021400184770470C0000200C000020000000006C
:1002240010B5064C237843B9FFF7DAFF044B13B13A
:100234000448AFF300800123237010BD0C0000209C
:1002440000000000481B000808B5044B1BB104491A
:100254000448AFF30080BDE80840CFE70000000089
:1002640010000020481B000870B50D4E0D4D761B84
:10027400B61006D00024013455F8043B9847A64232
:10028400F9D1094E094D01F05DFC761BB61006D07C
:100294000024013455F8043B9847A642F9D170BDB7
:1002A400841B0008841B0008881B0008841B0008AA
:1002B400F0B4860746D0541E002A3CD0CAB2034686
:1002C40002E014F1FF3436D303F8012B9D07F8D173
:1002D400032C29D9CDB245EA05250F2C45EA05455D
:1002E40033D9A4F11006360903F1200707EB0617EA
:1002F40003F1100242E9045542E902551032BA42B0
:10030400F8D1721C14F00C0F03EB021204F00F0668
:1003140013D0331F23F003030433134442F8045B64
:100324009342FBD106F003042CB1C9B21C4403F878
:10033400011B9C42FBD1F0BC704734461346002C91
:10034400F3D1F8E714460346C2E71A462646E0E727
:1003540084B0134B9A6942F010029A619A6902F0D0
:1003640010020092009A9A6942F020029A619A69F6
:1003740002F020020192019A9A6942F004029A6101
:100384009A6902F004020292029A9A6942F00802FF
:100394009A619B6903F008030393039B04B07047BD
:1003A4000010024072B6FEE710B592B0002410941B
:1003B400119409940A940B940C940D940E940F9434
:1003C4002022214601A8FFF773FF3348334B036013
:1003D400446084604FF6FF73C360046144618461C8
:1003E40000F090FC002846D12B4800F05FFC002868
:1003F40043D100231093119310A9274800F048FE1D
:1004040000283CD16023099300220A920B920C929B
:100414000D920E920F9209A91F4800F058FD002872
:100424002FD100230993042209A91B4800F026FDBB
:1004340048BB082209A9184800F020FD28BB602306
:1004440009930C2209A9144800F041FDF8B90023CE
:10045400019302930393049305934FF4005206927D
:10046400089301A90C4800F04FFE90B90A4800F027
:100474008BFA12B010BDFFF795FFFFF793FFFFF75C
:1004840091FFFFF78FFFFFF78DFFFFF78BFFFFF75C
:1004940089FFFFF787FF00BF48010020002C0140BF
:1004A40000B58DB000230193029314484FF08042AD
:1004B4000260436083604FF6FF72C2600361836130
:1004C40001220392049305920693079308930992D9
:1004D4000A930B9303A900F041FC50B90023019344
:1004E400029301A9054800F0D3FD20B90DB05DF8D1
:1004F40004FBFFF757FFFFF755FF00BF90010020F3
:1005040000B58DB00023019302931348134A02608F
:10051400436083604FF6FF72C2600361836101220E
:1005240003920493059206930793089309920A93FE
:100534000B9303A900F012FC50B90023019302931A
:1005440001A9054800F0A4FD20B90DB05DF804FB35
:10055400FFF728FFFFF726FF0001002000040040FA
:1005640000B58DB00023019302931348134A02602F
:10057400436083604FF6FF72C260036183610122AE
:1005840003920493059206930793089309920A939E
:100594000B9303A900F0E2FB50B9002301930293EB
:1005A40001A9054800F074FD20B90DB05DF804FB05
:1005B400FFF7F8FEFFF7F6FE700000200008004089
:1005C40000B587B00023029303930493059300932B
:1005D40001931348134A0260436083604FF6FF722D
:1005E400C2600361836100F035FB90B94FF480531E
:1005F400029302A90A4800F0DDFC60B900230093CD
:1006040001936946064800F043FD30B907B05DF830
:1006140004FBFFF7C7FEFFF7C5FEFFF7C3FE00BFED
:10062400B8000020000C004010B592B000241094D3
:10063400119409940A940B940C940D940E940F94B1
:100644002022214601A8FFF733FE3148314B0360D5
:10065400446084604FF6FF73C36004614461846145
:1006640000F024FB002842D1294800F04BFB00286D
:100674003FD100231093119310A9254800F008FDE1
:10068400002838D1002209920A920B920C920D9202
:100694000E920F9209A91E4800F0F0FB68BB60237C
:1006A4000993042209A91A4800F011FC38BB082256
:1006B40009A9174800F00BFC18BB0C2209A914481F
:1006C40000F005FCF8B9002301930293039304930B
:1006D40005934FF400520692089301A90C4800F0C8
:1006E40013FD90B90A4800F04FF912B010BDFFF79E
:1006F40059FEFFF757FEFFF755FEFFF753FEFFF7CE
:1007040051FEFFF74FFEFFF74DFEFFF74BFE00BF14
:10071400280000200034014000B591B00023099363
:100724000B930C9301930293039304930593012178
:1007340006914FF48032079208930A9102230D9395
:100744000E924FF4E0130F9306A800F067FD80B9F2
:100754000F23019302210291002303934FF480623B
:100764000492059301A800F097FF20B911B05DF839
:1007740004FBFFF717FEFFF715FE08B500F014FDA4
:10078400FFF7CAFFFFF7E4FDFFF70EFEFFF788FE51
:10079400FFF7B6FEFFF7E4FEFFF712FFFFF744FF93
:1007A400FEE7FEE7FEE7FEE7FEE7FEE77047704779
:1007B400704708B500F00AFD08BD000082B00E4B7A
:1007C4009A6942F001029A619A6902F00102009268
:1007D400009ADA6942F08052DA61DB6903F08053EF
:1007E4000193019B054A536823F0E06343F00073CF
:1007F400536002B0704700BF001002400000014087
:100804000268094B9A4200D0704782B003F56443F2
:100814009A6942F400629A619B6903F4006301934C
:10082400019B02B0704700BF002C014000B58BB0A3
:10083400002306930793089309930368B3F1804F49
:1008440008D0354A934223D0344A934246D00BB061
:100854005DF804FB03F50433DA6942F00102DA615E
:10086400DA6902F001020092009A9A6942F00402E5
:100874009A619B6903F004030193019B032306938C
:1008840000230793089306A9254800F0BBFFDEE781
:10089400244BDA6942F00202DA61DA6902F00202F8
:1008A4000292029A9A6942F008029A619B6903F0E3
:1008B40008030393039B30230693002307930893B1
:1008C40006A9194800F09EFF184A536823F44063B0
:1008D40043F0E06343F400635360B8E7114BDA6913
:1008E40042F00402DA61DA6902F004020492049A22
:1008F4009A6942F008029A619B6903F00803059320
:10090400059BC023069300230793089306A9064872
:1009140000F078FF9BE700BF00040040000800409F
:100924000008014000100240000C0140000001409A
:100934000268094B9A4200D0704782B003F5013334
:10094400DA6942F00802DA61DB6903F00803019313
:10095400019B02B0704700BF000C00400268094BC5
:100964009A4200D0704782B003F55C439A6942F41E
:1009740000529A619B6903F400530193019B02B0F6
:10098400704700BF0034014010B588B000230493C1
:100994000593069307930368214A934204D0214A9E
:1009A400934228D008B010BD1F4B9A6942F0080248
:1009B4009A619A6902F008020192019A9A6942F0D6
:1009C40004029A619B6903F004030293029B4FF4AF
:1009D4006043049302240594079404A9134800F087
:1009E40011FF4FF4006304930594079404A910487D
:1009F40000F008FFD6E70C4B9A6942F010029A61A6
:100A04009B6903F010030393039B4FF470730493E7
:100A140002230593079304A9064800F0F3FEC1E7F7
:100A2400002C01400034014000100240000C014041
:100A3400000801400010014030B4036A23F00103B0
:100A44000362056A4268846924F073040B681C43DA
:100A540025F002058B682B43104DA84203D005F501
:100A64000065A84205D123F00803CD682B4323F089
:100A740004030A4DA84203D005F50065A84205D138
:100A840022F440724D6915438A692A4342608461A5
:100A94004A684263036230BC704700BF002C0140C7
:100AA40030B4036A23F480730362036A4268C4693E
:100AB40024F073040D682C4323F400738D6843EA17
:100AC4000523124DA84203D005F50065A84206D1BE
:100AD40023F40063CD6843EA052323F480630B4DBC
:100AE400A84203D005F50065A84207D122F440527C
:100AF4004D6942EA05128D6942EA05124260C461F9
:100B04004A68C263036230BC704700BF002C0140D6
:100B140030B4036A23F480530362036A4468C269ED
:100B240022F4E6420D6842EA052223F400538D685C
:100B340043EA0533094DA84203D005F50065A842F0
:100B440004D124F480444D6944EA85144460C261AC
:100B54004A680264036230BC704700BF002C014045
:100B640030B4036A056A25F001050562846924F03E
:100B7400F00444EA021423F00A030B438461036281
:100B840030BC704730B4056A25F0100505628469ED
:100B9400036A24F4704444EA023423F0A00343EAD1
:100BA40001138461036230BC7047836823F07003CF
:100BB4000B4343F007038360704700000368244A33
:100BC400904212D002F5006290420ED0B0F1804FF4
:100BD4000BD0A2F59832904207D002F58062904281
:100BE40003D002F58062904203D123F070034A6877
:100BF4001343174A904212D002F5006290420ED07D
:100C0400B0F1804F0BD0A2F59832904207D002F594
:100C14008062904203D002F58062904203D123F4B3
:100C24004073CA68134323F080034A691343036083
:100C34008B68C3620B688362054B984203D003F54B
:100C44000063984201D10B69036301234361704738
:100C5400002C014040B310B5044690F83D30F3B188
:100C6400022384F83D30214651F8040BFFF7A6FF18
:100C7400012384F8463084F83E3084F83F3084F809
:100C8400403084F8413084F8423084F8433084F8AA
:100C9400443084F8453084F83D30002010BD80F89D
:100CA4003C30FFF745FEDBE70120704740B310B549
:100CB400044690F83D30F3B1022384F83D302146D8
:100CC40051F8040BFFF77AFF012384F8463084F8C7
:100CD4003E3084F83F3084F8403084F8413084F862
:100CE400423084F8433084F8443084F8453084F842
:100CF4003D30002010BD80F83C30FFF72FFEDBE7CD
:100D04000120704740B310B5044690F83D30F3B16C
:100D1400022384F83D30214651F8040BFFF74EFFBF
:100D2400012384F8463084F83E3084F83F3084F858
:100D3400403084F8413084F8423084F8433084F8F9
:100D4400443084F8453084F83D30002010BD80F8EC
:100D54003C30FFF755FDDBE701207047002853D0F6
:100D6400F8B50D46044690F83D30002B47D00223D9
:100D740084F83D302268936823F4804323F007030A
:100D84009360214651F8040BFFF718FF21688A6825
:100D94008E690F6A2868104326F4407626F003060D
:100DA400AA68AB6942EA0323334323F47C4323F068
:100DB400FC03EE68EA6946EA02261E432A6A130324
:100DC4002A6943EA0213334327F022076A686D69EC
:100DD40042EA05123A43886021688B6123681A62EB
:100DE400012384F8463084F83E3084F83F3084F898
:100DF400423084F8433084F83D300020F8BD80F858
:100E04003C30FFF713FDB2E70120704730B4036AAA
:100E140023F010030362036A4468826922F4E64201
:100E24000D6842EA052223F020038D6843EA051386
:100E3400114DA84203D005F50065A84206D123F060
:100E44008003CD6843EA051323F040030A4DA8420A
:100E540003D005F50065A84207D124F440644D6928
:100E640044EA85048D6944EA8504446082614A68E1
:100E74008263036230BC7047002C014090F83C3020
:100E8400012B22D010B50446012380F83C300C2AF3
:100E94000BD8DFE802F0070A0A0A0E0A0A0A120A45
:100EA4000A0A16000068FFF7C7FD002084F83C001A
:100EB40010BD0068FFF7AAFFF7E70068FFF7F0FD31
:100EC400F3E70068FFF724FEEFE70220704738B528
:100ED40090F83C30012B60D004460D46012380F885
:100EE4003C300C2A1AD8DFE802F0071919191D1929
:100EF40019193119191944000068FFF79DFD22687A
:100F0400936943F0080393612268936923F004030F
:100F140093612268936929690B439361002084F8E3
:100F24003C0038BD0068FFF771FF2268936943F401
:100F3400006393612268936923F480639361226858
:100F44009369296943EA01239361E7E70068FFF79E
:100F5400A7FD2268D36943F00803D3612268D369EB
:100F640023F00403D3612268D36929690B43D36155
:100F7400D4E70068FFF7CCFD2268D36943F400632B
:100F8400D3612268D36923F48063D3612268D3696F
:100F9400296943EA0123D361C0E70220C1E710B401
:100FA400846824F47F4442EA03220A432243826091
:100FB40010BC704790F83C30012B66D010B5044645
:100FC400012380F83C30022380F83D3002689368A6
:100FD40023F47F4323F0770393600B68602B40D0A6
:100FE40022D8402B47D00BD9502B0ED1CA68496860
:100FF4000068FFF7B5FD50212068FFF7D6FD04E037
:10100400202B0CD008D9302B09D0012384F83D3093
:10101400002084F83C0010BD0BB1102BF5D119460B
:101024002068FFF7C2FDF0E7702B0ED0B3F5005F28
:10103400EBD1CB684A6889680068FFF7B0FF226883
:10104400936843F480439360DFE7CB684A68896818
:101054000068FFF7A4FF2268936843F07703936066
:10106400D3E7CA6849680068FFF78CFD60212068EF
:10107400FFF79BFDC9E7CA6849680068FFF770FD80
:1010840040212068FFF791FDBFE702207047000070
:1010940090F83C30012B33D030B4012380F83C303D
:1010A400022380F83D3003685C689D6824F0700476
:1010B4000A6822435A600368124A934212D002F526
:1010C400006293420ED0B3F1804F0BD0A2F5983258
:1010D400934207D002F58062934203D002F5806206
:1010E400934204D125F080054A6815439D6001238D
:1010F40080F83D30002380F83C30184630BC7047FF
:1011040002207047002C014090F83C30012B22D083
:10111400012380F83C30CB6823F440738A6813437E
:1011240023F480634A68134323F400630A68134377
:1011340023F480530A69134323F400534A69134385
:1011440023F48043CA69134302685364002380F87C
:101154003C301846704702207047000010B5044622
:101164000E4B18784FF47A73B3FBF0F30C4A106803
:10117400B0FBF3F000F0A8FC68B90F2C01D90120F2
:101184000AE0002221464FF0FF3000F069FC054BD5
:101194001C60002000E0012010BD00BF0000002002
:1011A400080000200400002008B5074A136843F033
:1011B40010031360032000F041FC0F20FFF7CEFF63
:1011C400FFF7FCFA002008BD00200240034A116822
:1011D400034B1B780B441360704700BFD8010020F9
:1011E40000000020014B1868704700BFD8010020A0
:1011F40082B0084B1B68084AA2FB03235B0A00FB6E
:1012040003F3019300BF019B5A1E0192002BF9D1F5
:1012140002B0704708000020D34D6210002800F08F
:10122400F18170B582B00446036813F0010F2CD02D
:10123400AA4B5B6803F00C03042B1DD0A74B5B681F
:1012440003F00C03082B12D06368B3F5803F41D040
:10125400002B55D103F1804303F504331A6822F4BB
:1012640080321A601A6822F480221A6037E09B4B9D
:101274005B6813F4803FE7D0984B1B6813F4003F7E
:1012840003D06368002B00F0BF81236813F0020FC2
:1012940075D0924B5B6813F00C0F5FD08F4B5B687B
:1012A40003F00C03082B54D02369002B00F0898031
:1012B4008B4B01221A60FFF795FF0546874B1B688D
:1012C40013F0020F74D1FFF78DFF401B0228F5D9EC
:1012D40003209EE1814A136843F4803313606368FA
:1012E40043B3FFF77FFF05467C4B1B6813F4003FB5
:1012F400CBD1FFF777FF401B6428F5D9032088E1A1
:10130400B3F5A02F09D0754B1A6822F480321A6005
:101314001A6822F480221A60E1E703F18043A3F5FE
:101324003C331A6842F480221A601A6842F480320C
:101334001A60D4E7FFF756FF0546684B1B6813F4A1
:10134400003FA2D0FFF74EFF401B6428F5D90320CD
:101354005FE1624B5B6813F4803FA5D15F4B1B6870
:1013640013F0020F03D02369012B40F04F815B4A35
:10137400136823F0F803616943EAC1031360236827
:1013840013F0080F32D0A369002B45D0554B01222E
:101394001A60FFF727FF0546504B5B6A13F0020FF4
:1013A40021D1FFF71FFF401B0228F5D9032030E1AC
:1013B4004A4A136823F0F803616943EAC1031360DE
:1013C400DDE7474B00221A60FFF70CFF0546434B4D
:1013D4001B6813F0020FD2D0FFF704FF401B022852
:1013E400F5D9032015E10120FFF702FF236813F06C
:1013F400040F00F09780394BDB6913F0805F1DD137
:10140400364BDA6942F08052DA61DB6903F08053CB
:101414000193019B012512E0324B00221A60FFF771
:10142400E1FE05462D4B5B6A13F0020FDED0FFF799
:10143400D9FE401B0228F5D90320EAE000252A4BF7
:101444001B6813F4807F11D0E368012B22D0002B9A
:1014540038D103F1804303F504331A6A22F0010200
:101464001A621A6A22F004021A6218E01E4A136809
:1014740043F480731360FFF7B5FE06461A4B1B68EE
:1014840013F4807FE0D1FFF7ADFE801B6428F5D90B
:101494000320BEE0114A136A43F001031362E368B8
:1014A40073B3FFF79FFE06460C4B1B6A13F0020F43
:1014B40037D1FFF797FE801B41F288339842F3D966
:1014C4000320A6E0052B11D0044B1A6A22F0010276
:1014D4001A621A6A22F004021A62E0E7001002405B
:1014E4000000424280044242007000404D4B1A6AA0
:1014F40042F004021A621A6A42F001021A62CEE74A
:10150400FFF770FE0646474B1B6A13F0020F08D024
:10151400FFF768FE801B41F288339842F3D9032019
:1015240077E0E5B9E369002B72D03E4A526802F0D5
:101534000C02082A56D0022B17D03B4B00221A600B
:10154400FFF750FE0446374B1B6813F0007F47D06B
:10155400FFF748FE001B0228F5D9032059E0314A61
:10156400D36923F08053D361DCE72F4B00221A6048
:10157400FFF738FE05462B4B1B6813F0007F06D09F
:10158400FFF730FE401B0228F5D9032041E0236A0F
:10159400B3F5803F1AD023494B6823F47413226AAD
:1015A400606A024313434B601F4B01221A60FFF72A
:1015B40019FE04461B4B1B6813F0007F0ED1FFF786
:1015C40011FE001B0228F5D9032022E0154A5368B6
:1015D40023F40033A1680B435360DCE7002018E0D8
:1015E400002016E0012B16D00E4B5B6803F480310B
:1015F400226A914211D103F47013626A93420ED1AC
:10160400002006E001207047012002E0012000E0F4
:10161400002002B070BD0120FBE70120F9E70120A2
:10162400F7E700BF001002406000424286B0164B4C
:101634000FCB0DF1180C0CE90F0040F20123ADF8AB
:101644000430124B5B6803F00C02082A02D01048E5
:1016540006B07047C3F38342624412F8102C13F4AB
:10166400803F0CD0094B5B68C3F34043634413F8D9
:10167400143C074800FB02F0B0FBF3F0E8E7054830
:1016840000FB02F0E4E700BF601B0008001002400A
:1016940000127A0000093D00002800F0A08070B517
:1016A4000D460446524B1B6803F007038B420BD2D2
:1016B4004F4A136823F007030B431360136803F0C6
:1016C40007038B4240F08D80236813F0020F17D07C
:1016D40013F0040F04D0474A536843F4E0635360A3
:1016E400236813F0080F04D0424A536843F460534C
:1016F4005360404A536823F0F003A1680B435360DE
:10170400236813F0010F31D06368012B20D0022B22
:1017140025D0384A126812F0020F64D035494A685D
:1017240022F0030213434B60FFF75CFD0646314B86
:101734005B6803F00C036268B3EB820F16D0FFF70B
:1017440051FD801B41F288339842F0D9032045E0D3
:10175400284A126812F4003FE0D101203EE0254AF5
:10176400126812F0007FD9D1012037E0204B1B68AA
:1017740003F00703AB420AD91D4A136823F0070399
:101784002B431360136803F00703AB422DD1236886
:1017940013F0040F06D0174A536823F4E063E1689A
:1017A4000B435360236813F0080F07D0114A5368A2
:1017B40023F46053216943EAC1035360FFF736FF02
:1017C4000C4B5B68C3F303130B4AD35CD8400B4B3D
:1017D40018600B4B1868FFF7C1FC002070BD012096
:1017E40070470120FAE70120F8E70120F6E700BF7F
:1017F4000020024000100240741B00080800002072
:1018040004000020F0B482B000252C46ABE0854FE4
:10181400BB4210D007D9844FBB420CD007F58037A8
:10182400BB4208D013E0A7F58017BB4203D007F5ED
:101834007027BB4207D18B68002B60D0012B59D095
:101844004261082503E0A7F58017BB42F3D0FF2EC1
:1018540057D88446FF2E57D8A200DCF800300F2753
:10186400974023EA070305FA02F21343CCF8003049
:101874004B6813F0805F75D06C4B9A6942F001029B
:101884009A619B6903F001030193019BA208971CD1
:10189400674B53F827C004F003039F000F23BB409A
:1018A4002CEA030C634B984234D003F580639842CE
:1018B40000F0948003F58063984200F0918003F572
:1018C4008063984200F08E8003F58063984200F0B4
:1018D4008B8003F5806398421AD006231BE0CD6801
:1018E400B5E7CD680435B2E7CD680835AFE7CD6814
:1018F4000C35ACE702610825A9E70025A7E7042514
:10190400A5E700F1040CA5E7A4F108029200A4E7FE
:10191400052300E00023BB4043EA0C030232444F9A
:1019240047F822304B6813F4803F5FD0424A136873
:10193400334313604B6813F4003F5DD03E4A536851
:10194400334353604B6813F4801F5BD03A4A936867
:10195400334393604B6813F4001F59D0364AD3685D
:101964001E43D66001340B6833FA04F256D00122C8
:10197400A24003EA020632EA0303F3D14B68122BB6
:101984003FF645AF122B3FF662AF01A757F823F09D
:101994003B180008E3180008ED180008FF180008B9
:1019A4005318000853180008531800085318000867
:1019B4005318000853180008531800085318000857
:1019C4005318000853180008531800085318000847
:1019D40053180008E7180008F318000801239AE7D1
:1019E400022398E7032396E7042394E7124A136833
:1019F40023EA060313609DE70F4A536823EA0603AC
:101A040053609FE70C4A936823EA06039360A1E7B7
:101A1400094AD36823EA0606D660A3E702B0F0BCFD
:101A2400704700BF00002210000031100010024077
:101A3400000001400008014000040140074AD36847
:101A440023F4E0631B041B0C000200F4E060034376
:101A540043F0BF6343F40033D360704700ED00E00C
:101A640030B4174BDB68C3F30223C3F10704042C1F
:101A740028BF04241D1D062D18D9033B4FF0FF3544
:101A840005FA04F421EA0401994005FA03F322EA71
:101A94000303194300280BDB0901C9B200F16040BC
:101AA40000F5614080F8001330BC70470023E5E77F
:101AB40000F00F000901C9B2024B1954F4E700BF4A
:101AC40000ED00E014ED00E00138B0F1807F0AD2AF
:101AD400064B5860064AF02182F8231000209860D3
:101AE40007221A6070470120704700BF10E000E031
:101AF40000ED00E0704700000C480D490D4A00233A
:101B040002E0D458C4500433C4188C42F9D30A4AAE
:101B14000A4C002301E013600432A242FBD3FFF716
:101B2400E9FFFEF7A1FBFEF728FE70470000002046
:101B34000C0000208C1B00080C000020DC0100209D
:101B4400FEE70000F8B500BFF8BC08BC9E4670472D
:0C1B5400F8B500BFF8BC08BC9E46704706
:101B600002030405060708090A0B0C0D0E0F1010DE
:101B7000000000000000000000000000010203045B
:041B80000607080943
:041B84004D02000806
:041B8800250200082A
:0C1B8C0001000000100000000024F40024
:0400000508001AFDD8
:00000001FF
